:100000000C94B6000C94DE000C94DE000C94DE0020
:100010000C94DE000C94DE000C94DE000C94DE00E8
:100020000C94DE000C94DE000C94DE000C94DE00D8
:100030000C94DE000C94DE000C94DE000C94DE00C8
:100040000C9414090C94DE000C94E1030C942C0421
:100050000C94DE000C94DE000C94DE000C94DE00A8
:100060000C94DE000C94DE000A000A4572726F7276
:10007000733A2043616E27742066696E6420746849
:10008000652068656164206F66206461746100208A
:1000900062706D0050756C73652076616C756520BB
:1000A0003A2000206D6D48670044696173746F6C7D
:1000B00069632076616C7565203A2000206D6D487B
:1000C0006700537973746F6C69632076616C756532
:1000D000203A20003A002061742000206F66200042
:1000E000206F66200044617465202D3E20004D6520
:1000F0006173757265206E756D62657220003D3D9D
:100100003D3D3D3D3D3D3D3D3D3D3D3D3D3D3D3D1F
:100110003D3D3D3D3D3D3D3D3D3D3D3D3D3D3D3D0F
:100120003D3D3D3D3D3D3D3D004E756D626572205E
:100130006F66206D65617375726573203A20000AE1
:1001400052656164696E6720456E64732E0A000A09
:100150003D3D0A52656164696E6720537461727433
:10016000732E2E2E0A000501B302960511241FBE20
:10017000CFEFD8E0DEBFCDBF12E0A0E0B1E0EEEC03
:10018000F8E102C005900D92A432B107D9F717E04B
:10019000A4E2B2E001C01D92A633B107E1F711E07D
:1001A000CCE6D1E004C02297FE010E94610CC63665
:1001B000D107C9F70E9405090C94650C0C94000046
:1001C000FB01DC0102C001900D9241505040D8F774
:1001D0000895FB01DC0101900D920020E1F70895E4
:1001E000FC01E752FD4F80810895772767FD7095E8
:1001F000862F8295807F607F7070E4E075956795AB
:10020000EA95E1F7860F809508950895CF93DF93DF
:10021000EC014130510519F460E071E03EC042301C
:10022000510519F468E071E038C04330510519F404
:1002300061E171E032C04430510519F467E171E0C9
:100240002CC04530510519F46DE171E026C04630EF
:10025000510519F461E271E020C04730510519F4ED
:1002600066E271E01AC04830510519F46BE271E0A2
:1002700014C04930510519F462E371E00EC04A30F0
:10028000510519F46CE371E008C04B30510519F4C5
:1002900064E471E002C06DE471E00E94E508CE0103
:1002A000DF91CF910895BF92CF92DF92EF92FF92AC
:1002B0000F931F93DF93CF9300D000D0CDB7DEB75D
:1002C0007C0181EC898382EC8A8383EC8B8384ECD0
:1002D0008C83B9EDCB2EB2E0DB2ECE0CDF1CF60109
:1002E000108287E097E040E05BE460E070E00E940D
:1002F000660487E097E06AEA0E94570581E090E093
:100300000E94C30987E097E065E50E94570581E0F8
:1003100090E00E94C30987E097E068E80E945705D3
:1003200064EC79E080E090E00E946A0987E097E061
:100330000E94ED04181619060CF007C187E097E03B
:10034000BE016F5F7F4F44E050E00E946008882349
:1003500039F087E097E068E670E00E94160612C068
:1003600087E097E06AE670E00E945906EEC0F0EF81
:10037000BF1641F4013F31F4823F21F4F601808140
:100380008F5F808387E097E00E94FF04182F87E04B
:1003900097E00E94ED04892B09F4C8C0113D09F4CF
:1003A000C5C0143D09F4C2C0F6011081103508F033
:1003B000BDC087E097E00E941F05682FC7010E941B
:1003C000F500E12FF0E03796A3E0EE0FFF1FAA95AE
:1003D000E1F7EE0DFF1D8083F6018081082F10E00C
:1003E00087E097E00E941F05682FC7010E94F50073
:1003F00073E0000F111F7A95E1F70E0D1F1DF80134
:1004000081AFF6018081082F10E087E097E00E941D
:100410001F05682FC7010E94F50063E0000F111F40
:100420006A95E1F70E0D1F1DF80182AFF60180817C
:10043000082F10E087E097E00E941F05682FC70192
:100440000E94F50053E0000F111F5A95E1F70E0DC1
:100450001F1DF80183AFF6018081082F10E087E0AF
:1004600097E00E941F05682FC7010E94F50043E036
:10047000000F111F4A95E1F70E0D1F1DF80184AF03
:10048000F6018081082F10E087E097E00E941F05A9
:10049000682FC7010E94F50033E0000F111F3A9545
:1004A000E1F70E0D1F1DF80185AFF6018081082FC1
:1004B00010E087E097E00E941F05682FC7010E94A7
:1004C000F50023E0000F111F2A95E1F70E0D1F1D07
:1004D000F80186AFF6018081082F10E087E097E0F1
:1004E0000E941F05682FC7010E94F50093E0000FCE
:1004F000111F9A95E1F70E0D1F1DF80187AF87E0D8
:1005000097E00E941F05182F87E097E00E941F05C3
:10051000B82E87E097E00E941F05082F87E097E03C
:100520000E941F051F3F09F02DCF21CF00E010E0F2
:1005300087E097E00E941F050F5F1F4F04301105F1
:10054000B9F787E097E00E9447050F900F900F9052
:100550000F90CF91DF911F910F91FF90EF90DF905F
:10056000CF90BF9008950895AF92BF92CF92DF923F
:10057000EF92FF920F931F93DF93CF93CDB7DEB728
:1005800027970FB6F894DEBF0FBECDBF87E097E088
:100590006FE471E00E94160684E292E00E9453012B
:1005A00087E097E06FE371E00E94160684E292E034
:1005B0000E94F000182F87E097E069E271E00E9446
:1005C000160687E097E0612F4AE050E00E940E0790
:1005D00068EC70E080E090E00E946A098CE5E82E0B
:1005E00082E0F82ECC24DD24A12EBB248E010F5FE7
:1005F0001F4FC2C087E097E06EEF70E00E9459067F
:1006000087E097E06EEE70E00E9416060894C11C29
:10061000D11C87E097E0B6014AE050E00E947F07D6
:1006200087E097E065EE70E00E94160687E097E0AD
:10063000F70162814AE050E00E94FC0687E097E003
:1006400060EE70E00E941606F7014181C80164E285
:1006500072E050E00E94060187E097E0B8010E9436
:100660009E07C8010E94FF0887E097E06BED70E0ED
:100670000E941606F701608170E06053784F87E0B2
:1006800097E04AE050E00E946C0787E097E066ED53
:1006900070E00E941606F70183818A3040F487E0FB
:1006A00097E060E070E04AE050E00E946C0787E06D
:1006B00097E0F70163814AE050E00E94FC0687E082
:1006C00097E064ED70E00E941606F70184818A309D
:1006D00040F487E097E060E070E04AE050E00E947C
:1006E0006C0787E097E0F70164814AE050E00E94E0
:1006F0000E0787E097E062EC70E00E941606F701B3
:10070000658170E0625E7F4F87E097E04AE050E0ED
:100710000E946C0787E097E06CEB70E00E9459063E
:1007200087E097E069EA70E00E94160687E097E0AC
:10073000F70166814AE050E00E94FC0687E097E0FE
:1007400063EA70E00E94590687E097E064E970E090
:100750000E94160687E097E0F70167814AE050E0C3
:100760000E94FC0687E097E06FE870E00E9459065F
:1007700088E090E0E80EF91ECA14DB040CF43ACFCE
:1007800060E27EE480E090E00E946A0927960FB65E
:10079000F894DEBF0FBECDBFCF91DF911F910F91B7
:1007A000FF90EF90DF90CF90BF90AF90089587E0DB
:1007B00097E040E05BE460E070E00E94660408952A
:1007C00008951F920F920FB60F9211242F933F930B
:1007D0004F938F939F93EF93FF938091C00082FD7F
:1007E0001CC04091C6002091FF05309100062F5F8C
:1007F0003F4F30708091010690910206281739070B
:1008000071F0E091FF05F0910006E150FB4F40834D
:10081000309300062093FF0502C08091C600FF912F
:10082000EF919F918F914F913F912F910F900FBE1C
:100830000F901F901895E0911307F0911407E05066
:10084000FF4F819191912081318180509F4F82177C
:1008500011F00E94E00308951F920F920FB60F92BD
:1008600011242F933F938F939F93EF93FF932091A6
:100870000307309104078091050790910607281718
:10088000390731F48091C1008F7D8093C10013C07E
:10089000E0910507F0910607ED5FF94F2081809107
:1008A0000507909106070196907090930607809334
:1008B00005072093C600FF91EF919F918F913F9183
:1008C0002F910F900FBE0F901F901895AF92BF926F
:1008D000DF92EF92FF920F931F93CF93DF93EC0180
:1008E0007A018B01DD24403081EE580780E06807F3
:1008F00080E0780711F0DD24D39491E0A92EB12C8B
:10090000EC89FD89DD2069F0C50108A002C0880FCF
:10091000991F0A94E2F7808360E079E08DE390E02C
:1009200005C0108260E874E88EE190E0A8019701AC
:100930000E943D0C21503040404050405695479514
:100940003795279580E12030380720F0DD2011F021
:10095000DD24D6CFE889F9893083EA89FB892083B1
:1009600019A2EE89FF89408121E030E0C9010C8C99
:1009700002C0880F991F0A94E2F7482B4083EE8942
:10098000FF894081C9010D8C02C0880F991F0A940C
:10099000E2F7482B4083EE89FF894081C9010E8C24
:1009A00002C0880F991F0A94E2F7482B4083EE8912
:1009B000FF8980810F8C02C0220F331F0A94E2F757
:1009C000209528232083DF91CF911F910F91FF90D5
:1009D000EF90DF90BF90AF900895DC011C96ED91F1
:1009E000FC911D97E050FF4F2191319180819181C1
:1009F00020503F4F281B390B3070C9010895DC018E
:100A00001C96ED91FC911D97E050FF4F20813181A4
:100A1000E050F140DF01AE5FBE4F8D919C91119788
:100A20002817390719F42FEF3FEF07C08D919C91DC
:100A3000E80FF91F8081282F30E0C9010895DC01FB
:100A40001C96ED91FC911D97E050FF4F2081318164
:100A5000E050F140DF01AE5FBE4F8D919C91119748
:100A60002817390719F42FEF3FEF0FC08D919C9194
:100A70001197E80FF91F20818D919C911197019694
:100A8000907011969C938E9330E0C9010895DC011B
:100A900091968C919197882339F05496ED91FC9121
:100AA0005597808186FFF9CF91961C920895CF9338
:100AB000DF93EC01EE85FF85E050FF4F208131810F
:100AC000E050F1402F5F3F4F3070DF01AE5FBE4F0F
:100AD0008D919C91119728173907D1F3E050FF4F62
:100AE00080819181E050F140E80FF91F6083EE852D
:100AF000FF85E050FF4F31832083EE89FF892081FD
:100B000081E090E00F8C02C0880F991F0A94E2F7F1
:100B1000282B208381E089A3EC89FD898081806472
:100B2000808381E090E0DF91CF91089510920A07D1
:100B30001092090788EE93E0A0E0B0E080930B07E5
:100B400090930C07A0930D07B0930E0788E192E0F5
:100B500090930807809307078FEF94E09093140712
:100B60008093130783E096E0909316078093150710
:100B700085EC90E0909318078093170784EC90E041
:100B800090931A078093190780EC90E090931C07CC
:100B900080931B0781EC90E090931E0780931D07C4
:100BA00082EC90E09093200780931F0786EC90E002
:100BB000909322078093210784E08093230783E0AA
:100BC0008093240787E08093250785E0809326079C
:100BD00081E0809327070895CF92DF92EF92FF92F2
:100BE0000F931F93CF93DF937C016B018A01C0E0C9
:100BF000D0E00FC0D6016D916D01D701ED91FC9150
:100C00000190F081E02DC7010995C80FD91F01504F
:100C100010400115110571F7CE01DF91CF911F91A1
:100C20000F91FF90EF90DF90CF900895EF92FF9299
:100C30000F931F93CF93DF937C018B01C0E0D0E033
:100C4000F8010F5F1F4F6491662359F0D701ED91B2
:100C5000FC910190F081E02DC7010995C80FD91FC3
:100C6000EFCFCE01DF91CF911F910F91FF90EF90C9
:100C70000895EF92FF920F931F938C01DC01ED9189
:100C8000FC910190F081E02D6DE009957C01D80187
:100C9000ED91FC910190F081E02DC8016AE0099589
:100CA0009C012E0D3F1DC9011F910F91FF90EF90E8
:100CB0000895EF92FF920F931F937C010E941606F6
:100CC0008C01C7010E9439069C01200F311FC90108
:100CD0001F910F91FF90EF900895CF93DF93EC0158
:100CE0006115710519F420E030E00FC0DB010D90B3
:100CF0000020E9F71197A61BB70BE881F981028064
:100D0000F381E02DAD0109959C01C901DF91CF91DF
:100D100008954F925F927F928F929F92AF92BF926F
:100D2000CF92DF92EF92FF920F931F93DF93CF93B7
:100D3000CDB7DEB7A1970FB6F894DEBF0FBECDBF1B
:100D40002C01742ECB01223008F42AE019A231E2E2
:100D5000C32ED12CCC0EDD1E822E9924AA24BB24B6
:100D6000672D752FA50194010E943D0C79018A0120
:100D7000C801B701A50194010E941E0C472D461B16
:100D80000894C108D1084A3014F4405D01C0495CA0
:100D9000F6014083E114F1040105110521F07E2CD8
:100DA0005F2DC801DDCFC201B6010E946D06A1967C
:100DB0000FB6F894DEBF0FBECDBFCF91DF911F916C
:100DC0000F91FF90EF90DF90CF90BF90AF909F90EA
:100DD0008F907F905F904F900895DC012115310531
:100DE00041F4ED91FC910190F081E02D642F099583
:100DF00008950E9489060895EF92FF920F931F9322
:100E00009A01E62EFF2400E010E0B801A7010E943D
:100E1000ED061F910F91FF90EF900895CF92DF9212
:100E2000EF92FF920F931F936C01E62E9A01FF241D
:100E300000E010E0B801A7010E94ED068C01C60198
:100E40000E943906080F191FC8011F910F91FF90CA
:100E5000EF90DF90CF900895CF92DF92EF92FF92C4
:100E60000F931F93CF93DF93EC016A017B01211550
:100E7000310541F4E881F9810190F081E02D642F82
:100E800009951FC02A303105D1F477FF17C0E881DA
:100E9000F9810190F081E02D6DE209958C014427E4
:100EA0005527BA014C195D096E097F09CE012AE068
:100EB0000E9489069801280F391F04C02AE00E9469
:100EC00089069C01C901DF91CF911F910F91FF907D
:100ED000EF90DF90CF900895EF92FF920F931F93C2
:100EE0007B019A010027F7FC0095102FB801A7019C
:100EF0000E942C071F910F91FF90EF900895CF92C1
:100F0000DF92EF92FF920F931F936C017B019A0186
:100F10000027F7FC0095102FB801A7010E942C07AD
:100F20008C01C6010E943906080F191FC8011F91C4
:100F30000F91FF90EF90DF90CF900895AF92BF9206
:100F4000CF92DF92EF92FF920F931F93CF93DF9395
:100F50005C016B01EE24FF24C0E0D0E010C0D5019D
:100F6000ED91FC9100811181C601BE010E946B08C8
:100F7000682FC501F8010995E80EF91E2196F601C2
:100F800084819581C817D90750F3C701DF91CF91AC
:100F90001F910F91FF90EF90DF90CF90BF90AF9097
:100FA0000895CF93DF93EC010E945C0968877987ED
:100FB0008A879B87E881F9810680F781E02DCE0141
:100FC00009959C0197FF15C00E945C092885398509
:100FD0004A855B85621B730B840B950B2C813D81CD
:100FE0004E815F81621773078407950718F32FEF0F
:100FF0003FEFC901DF91CF9108956F927F928F9259
:101000009F92AF92BF92CF92DF92EF92FF920F9397
:101010001F93CF93DF933C017B014A015901680183
:10102000FB0180818823D1F1C0E0D0E02DC0F70121
:10103000EC0FFD1F8081992787FD909528173907B0
:1010400011F0C0E0D0E0F701EC0FFD1F808199277F
:1010500087FD90952817390721F42196C815D905E1
:10106000E8F4C114D10481F0F501E00FF11F808193
:10107000992787FD90952817390731F40F5F1F4F87
:101080000C151D0518F00CC000E010E0C3010E9413
:10109000D1079C011816190654F202C081E001C064
:1010A00080E0DF91CF911F910F91FF90EF90DF9043
:1010B000CF90BF90AF909F908F907F906F9008954A
:1010C0000F931F9320E030E000E010E00E94FD0746
:1010D0001F910F910895FC0184819581681779070C
:1010E00048F40190F081E02D309721F0E60FF71FD2
:1010F0008081089580E008950F931F93CF93DF932D
:10110000EC018B016F5F7F4F888199810E943D0BBD
:10111000009711F480E005C0998388831B830A83BC
:1011200081E0DF91CF911F910F910895CF93DF93CD
:10113000EC0188819981892B29F08A819B8186170E
:10114000970760F4CE010E947C08882341F08C81CF
:101150009D81892B19F4E881F981108281E0DF916A
:10116000CF910895CF93DF93EC0188819981009707
:1011700011F00E94A50A198218821D821C821B820E
:101180001A82DF91CF910895EF92FF920F931F93F0
:10119000CF93DF93EC017B018A01BA010E9496088C
:1011A000882321F4CE010E94B20807C01D830C835E
:1011B00088819981B7010E94E900CE01DF91CF912A
:1011C0001F910F91FF90EF900895CF93DF93EC0163
:1011D000198218821B821A821D821C821E8261154E
:1011E000710551F0DB010D900020E9F71197A61B66
:1011F000B70BAD010E94C408DF91CF910895FC01A7
:10120000808191810E94A50A0895CF93DF930E9467
:10121000CD090E94D703CBE1D4E00E94B40220970D
:10122000E1F30E941B04F9CF1F920F920FB60F92A9
:1012300011242F933F938F939F93AF93BF938091EC
:101240002D0790912E07A0912F07B0913007309174
:1012500031070196A11DB11D232F2D5F2D3720F0E1
:101260002D570196A11DB11D2093310780932D07A5
:1012700090932E07A0932F07B093300780912907F2
:1012800090912A07A0912B07B0912C070196A11DE0
:10129000B11D8093290790932A07A0932B07B09341
:1012A0002C07BF91AF919F918F913F912F910F90FC
:1012B0000FBE0F901F9018958FB7F89420912D07AF
:1012C00030912E0740912F07509130078FBFB90101
:1012D000CA0108959B01AC017FB7F894809129075A
:1012E00090912A07A0912B07B0912C0766B5A89B77
:1012F00005C06F3F19F00196A11DB11D7FBFBA2F28
:10130000A92F982F8827860F911DA11DB11D62E07E
:10131000880F991FAA1FBB1F6A95D1F7BC012DC06A
:10132000FFB7F8948091290790912A07A0912B0785
:10133000B0912C07E6B5A89B05C0EF3F19F00196C8
:10134000A11DB11DFFBFBA2FA92F982F88278E0F7F
:10135000911DA11DB11DE2E0880F991FAA1FBB1F9F
:10136000EA95D1F7861B970B885E9340C8F221500F
:1013700030404040504068517C4F211531054105B7
:10138000510571F60895019739F0880F991F880F5C
:10139000991F02970197F1F70895789484B58260B8
:1013A00084BD84B5816084BD85B5826085BD85B509
:1013B000816085BDEEE6F0E0808181608083E1E8B8
:1013C000F0E01082808182608083808181608083F0
:1013D000E0E8F0E0808181608083E1EBF0E08081F3
:1013E00084608083E0EBF0E0808181608083EAE7C5
:1013F000F0E080818460808380818260808380814E
:10140000816080838081806880831092C10008950C
:101410000F931F93CF93DF93BC018230910510F49B
:1014200062E070E0E0913407F091350740E050E071
:10143000A0E0B0E024C08081918186179707D0F0AA
:101440008617970771F482819381109729F013967C
:101450009C938E9312972CC09093350780933407FA
:1014600027C04115510519F08417950718F48D010F
:10147000AC01EF01DF01828193819C01F90130977A
:10148000D1F641155105F9F0CA01861B970B84303E
:10149000910580F48A819B810115110521F0F801E5
:1014A0009383828304C09093350780933407FE01B1
:1014B000329645C0FE01E80FF91F619371930297C0
:1014C000998388833CC08091320790913307892BA0
:1014D00041F4809110029091110290933307809310
:1014E000320740911202509113024115510541F407
:1014F0004DB75EB780910E0290910F02481B590BB9
:10150000209132073091330724173507B0F4CA0110
:10151000821B930B8617970780F0AB014E5F5F4FDE
:101520008417950750F0420F531F50933307409391
:101530003207F9016193719302C0E0E0F0E0CF015E
:10154000DF91CF911F910F910895CF93DF939C016D
:10155000009709F48FC0EC0122971B821A826091D8
:101560003407709135076115710581F4888199817F
:10157000820F931F209132073091330728173907C4
:1015800039F5D0933307C093320774C0DB0140E0D4
:1015900050E0AC17BD0708F1BB83AA83FE0121917F
:1015A0003191E20FF31FAE17BF0779F48D919C9133
:1015B0001197280F391F2E5F3F4F398328831296CA
:1015C0008D919C9113979B838A834115510571F4EA
:1015D000D0933507C09334074DC012968D919C91DE
:1015E0001397AD01009711F0DC01D3CFDA01139608
:1015F000DC93CE931297FA0121913191E20FF31F00
:10160000CE17DF0769F488819981280F391F2E5F73
:101610003F4FFA01318320838A819B8193838283A8
:10162000E0E0F0E0DB0112968D919C91139700971A
:1016300019F0BC01FD01F6CFAB014E5F5F4FDB013E
:101640008D919C91840F951F209132073091330723
:101650002817390779F4309729F41092350710923A
:10166000340702C013821282425050405093330715
:1016700040933207DF91CF9108956F927F928F92BE
:101680009F92AF92BF92CF92DF92EF92FF920F9311
:101690001F93CF93DF938C01009729F4CB010E9415
:1016A000080A8C01BBC08EEFE82E8FEFF82EE00EFB
:1016B000F11E4801860E971E8E149F0408F4ACC0DC
:1016C000D7014D915C91119746175707B8F04530F7
:1016D000510508F4A3C0CA0104978617970708F4B8
:1016E0009DC042505040461B570BF401419351930B
:1016F0006D937C93CF010E94A50A90C05B01A41A50
:10170000B50A3801640E751EA0913407B0913507F3
:10171000E0E0F0E0CC24DD2447C0A615B705A9F52C
:10172000CD91DC911197CE0102968A159B0568F147
:10173000CE018A199B09029612962C911297139644
:101740003C91059758F0F40122833383CA19DB09D1
:10175000D183C083D7016D937C9309C04E5F5F4FE7
:101760004C0F5D1FF70151834083C901FC01C11477
:10177000D10431F0D6011396FC93EE9312974EC02C
:10178000F0933507E093340749C08D919C911197F0
:10179000E817F90708F4FC016D0112968C91129775
:1017A00013969C919C01D901109709F0B6CF8091B6
:1017B00032079091330786159705E9F4E617F70786
:1017C000D0F420911202309113022115310541F419
:1017D0002DB73EB780910E0290910F02281B390B56
:1017E00082169306C8F49092330780923207F7016D
:1017F0007183608313C0CB010E94080AEC0100973B
:1018000059F0D7014D915C91B8010E94E000C801E8
:101810000E94A50A8E0102C000E010E0C801DF911D
:10182000CF911F910F91FF90EF90DF90CF90BF90DD
:10183000AF909F908F907F906F900895629FD0019E
:10184000739FF001829FE00DF11D649FE00DF11D7B
:10185000929FF00D839FF00D749FF00D659FF00D2A
:101860009927729FB00DE11DF91F639FB00DE11D17
:10187000F91FBD01CF0111240895A1E21A2EAA1B60
:10188000BB1BFD010DC0AA1FBB1FEE1FFF1FA21730
:10189000B307E407F50720F0A21BB30BE40BF50B2D
:1018A000661F771F881F991F1A9469F760957095B6
:1018B000809590959B01AC01BD01CF010895EE0F7D
:0E18C000FF1F0590F491E02D0994F894FFCFDE
:1018CE004A616E75617279004665627275617279F0
:1018DE00004D6172636800417072696C004D6179F0
:1018EE00004A756E65004A756C79004175677573AF
:1018FE00740053657074656D626572004F63746F2A
:10190E00626572004E6F76656D6265720044656346
:10191E00656D626572002E2E000A005500537570BB
:10192E00696E6520706F736974696F6E004C6566C1
:10193E0074206C61746572616C2064656375626994
:10194E00747573005269677468206C617465726196
:10195E006C206465637562697475730050726F6E86
:10196E006520706F736974696F6E005374616E6475
:10197E00206F722073697420706F736974696F6E53
:10198E00006E6F6E2D646566696E656420706F7390
:10199E006974696F6E004D4D41383435325120698E
:1019AE0073206F6E6C696E652E2E2E00436F756CF4
:1019BE0064206E6F7420636F6E6E65637420746F37
:1019CE00204D4D4138343532513A20307800800068
:1019DE0036070000000000005705EC05ED041F055A
:0419EE00FF044705A6
:00000001FF
