:100000000C94D1000C94F9000C94F9000C94F900B4
:100010000C94F9000C94F9000C94F9000C94F9007C
:100020000C94F9000C94F9000C94F9000C94F9006C
:100030000C94F9000C94F9000C94F9000C94F9005C
:100040000C944D090C94F9000C94B1040C94FC042C
:100050000C94F9000C94F9000C94F9000C94F9003C
:100060000C94F9000C94F90020000A0020000A43C7
:100070006865636B53756D20310A000A000A45728A
:10008000726F72733A2043616E27742066696E64E2
:10009000207468652068656164206F6620646174FF
:1000A000610020000A4461746120486561640A00AF
:1000B0000A53657269616C20617661696C61626C7A
:1000C000653A20002062706D0050756C7365207673
:1000D000616C7565203A2000206D6D4867004469A9
:1000E0006173746F6C69632076616C7565203A206A
:1000F00000206D6D486700537973746F6C696320DD
:1001000076616C7565203A20003A00206174200009
:10011000206F662000206F66200044617465202DEA
:100120003E20004D656173757265206E756D626568
:100130007220003D3D3D3D3D3D3D3D3D3D3D3D3D14
:100140003D3D3D3D3D3D3D3D3D3D3D3D3D3D3D3DDF
:100150003D3D3D3D3D3D3D3D3D3D3D3D3D004E75C3
:100160006D626572206F66206D656173757265736F
:10017000203A20000A52656164696E6720456E640A
:10018000732E0A000A3D3D0A52656164696E67205C
:100190005374617274732E2E2E0A000020018303A3
:1001A000660611241FBECFEFD8E0DEBFCDBF12E040
:1001B000A0E0B1E0E4E2F9E102C005900D92A233C3
:1001C000B107D9F717E0A2E3B2E001C01D92A43451
:1001D000B107E1F711E0C2EAD1E004C02297FE01C5
:1001E0000E948C0CCC39D107C9F70E943E090C94AF
:1001F000900C0C940000FB01DC0102C001900D92F8
:1002000041505040D8F70895FB01DC0101900D9258
:100210000020E1F70895FC01E752FD4F8081089529
:10022000772767FD7095862F8295807F607F70703D
:10023000E4E075956795EA95E1F7860F8095089556
:100240000895CF93DF93EC014130510519F460E03C
:1002500071E03EC04230510519F468E071E038C0E9
:100260004330510519F461E171E032C04430510569
:1002700019F467E171E02CC04530510519F46DE1C6
:1002800071E026C04630510519F461E271E020C0EA
:100290004730510519F466E271E01AC04830510543
:1002A00019F46BE271E014C04930510519F462E3AE
:1002B00071E00EC04A30510519F46CE371E008C0DA
:1002C0004B30510519F464E471E002C06DE471E053
:1002D0000E941E09CE01DF91CF9108956F927F9207
:1002E0008F929F92BF92CF92DF92EF92FF920F93E5
:1002F0001F93DF93CF9300D000D0CDB7DEB77C0142
:1003000089ED92E0E80EF91EF701108287E29DEF79
:10031000E80EF91E85E197E040E05BE460E070E004
:100320000E94360585E197E06AEA0E94270681E08F
:1003300090E00E94EE0985E197E065E50E942706BE
:1003400081E090E00E94EE0985E197E068E80E9474
:10035000270664EC79E080E090E00E94950985E151
:1003600097E00E94BD058C01181619060CF0B9C162
:1003700085E197E060EB70E00E94E60685E197E09A
:10038000B8014AE050E00E944F0885E197E064EA36
:1003900070E00E94E60685E197E00E94EF05182FC5
:1003A00085E197E0612F40E150E00E94CC0785E1B4
:1003B00097E062EA70E00E94E606113C61F585E193
:1003C00097E00E94EF05D82E85E197E00E94EF05A7
:1003D000082F85E197E00E94EF05182F85E197E04F
:1003E0006D2D40E150E00E94CC0785E197E0602F41
:1003F00040E150E00E94CC0785E197E0612F40E1A9
:1004000050E00E94CC0792ECD91629F6033C19F66D
:10041000143C09F604C01F3F09F0BDCF5CC11C832A
:100420000B83DA8285E197E06BE770E00E94E606D5
:1004300085E197E00E94CF05182F89EDC82E82E054
:10044000D82ECE0CDF1C3E010894611C711C05E007
:10045000802E912C8C0E9D1E2FC0E0EFBE1641F415
:10046000013F31F4823F21F4F60180818F5F808368
:1004700085E197E06EE670E00E94E606830185E183
:1004800097E0F80161918F0140E150E00E94CC07B4
:1004900085E197E06CE670E00E94E6060815190514
:1004A00071F785E197E06AE670E00E94E60685E173
:1004B00097E00E94CF05182F85E197E00E94BD05C7
:1004C000892B21F0113D11F0143D19F585E197E0DC
:1004D0000E94EF05898385E197E00E94EF058A83FA
:1004E00085E197E00E94EF058B8385E197E00E940C
:1004F000EF058C8385E197E06EE072E00E946E0864
:100500008E010F5F1F4FB5E0EB2EF12CEC0EFD1EA0
:10051000C5C0F60110811035C8F685E197E00E944C
:10052000EF05682FC7010E941001E12FF0E0379618
:10053000A3E0EE0FFF1FAA95E1F7EE0DFF1D8083EC
:10054000F6018081082F10E085E197E00E94EF0519
:10055000682FC7010E94100173E0000F111F7A95E8
:10056000E1F70E0D1F1DF80181AFF6018081082F04
:1005700010E085E197E00E94EF05682FC7010E9417
:10058000100163E0000F111F6A95E1F70E0D1F1DAA
:10059000F80182AFF6018081082F10E085E197E035
:1005A0000E94EF05682FC7010E94100153E0000F61
:1005B000111F5A95E1F70E0D1F1DF80183AFF601CB
:1005C0008081082F10E085E197E00E94EF05682FF9
:1005D000C7010E94100143E0000F111F4A95E1F787
:1005E0000E0D1F1DF80184AFF6018081082F10E069
:1005F00085E197E00E94EF05682FC7010E94100176
:1006000033E0000F111F3A95E1F70E0D1F1DF801A1
:1006100085AFF6018081082F10E085E197E00E9408
:10062000EF05682FC7010E94100123E0000F111F82
:100630002A95E1F70E0D1F1DF80186AFF6018081A6
:10064000082F10E085E197E00E94EF05682FC701B1
:100650000E94100193E0000F111F9A95E1F70E0D13
:100660001F1DF80187AF85E197E00E94EF05182F65
:10067000898385E197E00E94EF05B82E8A8385E1A2
:1006800097E00E94EF05082F8B8385E197E00E9499
:10069000EF058C831F3F09F0EBCEDFCE85E197E0BD
:1006A000F80161918F0140E150E00E94CC0785E1A3
:1006B00097E068E670E00E94E6060E151F0571F7E8
:1006C00085E197E069E571E00E946E0885E197E0B9
:1006D0000E94170606C085E197E06DE770E00E9472
:1006E00029070F900F900F900F90CF91DF911F91DE
:1006F0000F91FF90EF90DF90CF90BF909F908F90E1
:100700007F906F9008950895AF92BF92CF92DF923D
:10071000EF92FF920F931F93DF93CF93CDB7DEB786
:1007200027970FB6F894DEBF0FBECDBF85E197E0E7
:1007300064E871E00E94E60682E392E00E946E01A6
:1007400085E197E064E771E00E94E60682E392E0CB
:100750000E940B01182F85E197E06EE571E00E9481
:10076000E60685E197E0612F4AE050E00E94DE074F
:1007700068EC70E080E090E00E9495098AE6E82E3F
:1007800082E0F82ECC24DD24A12EBB248E010F5F45
:100790001F4FC2C085E197E063E371E00E94290723
:1007A00085E197E063E271E00E94E6060894C11CCF
:1007B000D11C85E197E0B6014AE050E00E944F0865
:1007C00085E197E06AE171E00E94E60685E197E045
:1007D000F70162814AE050E00E94CC0785E197E092
:1007E00065E171E00E94E606F7014181C80162E31C
:1007F00072E050E00E94210185E197E0B8010E947B
:100800007108C8010E94380985E197E060E171E054
:100810000E94E606F701608170E06053784F85E141
:1008200097E04AE050E00E943C0885E197E06BE0E9
:1008300071E00E94E606F70183818A3040F485E189
:1008400097E060E070E04AE050E00E943C0885E1FB
:1008500097E0F70163814AE050E00E94CC0785E110
:1008600097E069E071E00E94E606F70184818A3032
:1008700040F485E197E060E070E04AE050E00E94DB
:100880003C0885E197E0F70164814AE050E00E946E
:10089000DE0785E197E067EF70E00E94E606F7016A
:1008A000658170E0625E7F4F85E197E04AE050E04D
:1008B0000E943C0885E197E061EF70E00E94290703
:1008C00085E197E06EED70E00E94E60685E197E035
:1008D000F70166814AE050E00E94CC0785E197E08D
:1008E00068ED70E00E94290785E197E069EC70E00F
:1008F0000E94E60685E197E0F70167814AE050E053
:100900000E94CC0785E197E064EC70E00E94290723
:1009100088E090E0E80EF91ECA14DB040CF43ACF2C
:1009200060E27EE480E090E00E94950927960FB691
:10093000F894DEBF0FBECDBFCF91DF911F910F9115
:10094000FF90EF90DF90CF90BF90AF90089585E13A
:1009500097E040E05BE460E070E00E9436050895B7
:1009600008951F920F920FB60F9211242F933F9369
:100970004F938F939F93EF93FF938091C00082FDDD
:100980001CC04091C60020910D0630910E062F5FCD
:100990003F4F307080910F0690911006281739074D
:1009A00071F0E0910D06F0910E06E35FFA4F40837F
:1009B00030930E0620930D0602C08091C600FF9171
:1009C000EF919F918F914F913F912F910F900FBE7B
:1009D0000F901F901895E0912107F0912207E050A9
:1009E000FF4F819191912081318180509F4F8217DB
:1009F00011F00E94B00408951F920F920FB60F924B
:100A000011242F933F938F939F93EF93FF93209104
:100A1000110730911207809113079091140728173E
:100A2000390731F48091C1008F7D8093C10013C0DC
:100A3000E0911307F0911407EF5EF94F2081809148
:100A40001307909114070196907090931407809368
:100A500013072093C600FF91EF919F918F913F91D3
:100A60002F910F900FBE0F901F901895AF92BF92CD
:100A7000DF92EF92FF920F931F93CF93DF93EC01DE
:100A80007A018B01DD24403081EE580780E0680751
:100A900080E0780711F0DD24D39491E0A92EB12CE9
:100AA000EC89FD89DD2069F0C50108A002C0880F2E
:100AB000991F0A94E2F7808360E079E08DE390E08B
:100AC00005C0108260E874E88EE190E0A80197010B
:100AD0000E94680C21503040404050405695479548
:100AE0003795279580E12030380720F0DD2011F080
:100AF000DD24D6CFE889F9893083EA89FB89208310
:100B000019A2EE89FF89408121E030E0C9010C8CF7
:100B100002C0880F991F0A94E2F7482B4083EE89A0
:100B2000FF894081C9010D8C02C0880F991F0A946A
:100B3000E2F7482B4083EE89FF894081C9010E8C82
:100B400002C0880F991F0A94E2F7482B4083EE8970
:100B5000FF8980810F8C02C0220F331F0A94E2F7B5
:100B6000209528232083DF91CF911F910F91FF9033
:100B7000EF90DF90BF90AF900895DC011C96ED914F
:100B8000FC911D97E050FF4F21913191808191811F
:100B900020503F4F281B390B3070C9010895DC01EC
:100BA0001C96ED91FC911D97E050FF4F2081318103
:100BB000E050F140DF01AE5FBE4F8D919C911197E7
:100BC0002817390719F42FEF3FEF07C08D919C913B
:100BD000E80FF91F8081282F30E0C9010895DC015A
:100BE0001C96ED91FC911D97E050FF4F20813181C3
:100BF000E050F140DF01AE5FBE4F8D919C911197A7
:100C00002817390719F42FEF3FEF0FC08D919C91F2
:100C10001197E80FF91F20818D919C9111970196F2
:100C2000907011969C938E9330E0C9010895DC0179
:100C300091968C919197882339F05496ED91FC917F
:100C40005597808186FFF9CF91961C920895CF9396
:100C5000DF93EC01EE85FF85E050FF4F208131816D
:100C6000E050F1402F5F3F4F3070DF01AE5FBE4F6D
:100C70008D919C91119728173907D1F3E050FF4FC0
:100C800080819181E050F140E80FF91F6083EE858B
:100C9000FF85E050FF4F31832083EE89FF8920815B
:100CA00081E090E00F8C02C0880F991F0A94E2F750
:100CB000282B208381E089A3EC89FD8980818064D1
:100CC000808381E090E0DF91CF9108951092180722
:100CD0001092170780E197E2A0E0B0E08093190737
:100CE00090931A07A0931B07B0931C0785E292E02C
:100CF00090931607809315078DE095E09093220757
:100D00008093210781E196E0909324078093230745
:100D100085EC90E0909326078093250784EC90E083
:100D2000909328078093270780EC90E090932A0700
:100D30008093290781EC90E090932C0780932B07F8
:100D400082EC90E090932E0780932D0786EC90E044
:100D50009093300780932F0784E08093310783E0DE
:100D60008093320787E08093330785E080933407D0
:100D700081E0809335070895CF92DF92EF92FF9242
:100D80000F931F93CF93DF937C016B018A01C0E027
:100D9000D0E00FC0D6016D916D01D701ED91FC91AE
:100DA0000190F081E02DC7010995C80FD91F0150AE
:100DB00010400115110571F7CE01DF91CF911F9100
:100DC0000F91FF90EF90DF90CF900895EF92FF92F8
:100DD0000F931F93CF93DF937C018B01C0E0D0E092
:100DE000F8010F5F1F4F6491662359F0D701ED9111
:100DF000FC910190F081E02DC7010995C80FD91F22
:100E0000EFCFCE01DF91CF911F910F91FF90EF9027
:100E10000895EF92FF920F931F938C01DC01ED91E7
:100E2000FC910190F081E02D6DE009957C01D801E5
:100E3000ED91FC910190F081E02DC8016AE00995E7
:100E40009C012E0D3F1DC9011F910F91FF90EF9046
:100E50000895EF92FF920F931F937C010E94E60684
:100E60008C01C7010E9409079C01200F311FC90195
:100E70001F910F91FF90EF900895CF93DF93EC01B6
:100E80006115710519F420E030E00FC0DB010D9011
:100E90000020E9F71197A61BB70BE881F9810280C2
:100EA000F381E02DAD0109959C01C901DF91CF913E
:100EB00008954F925F927F928F929F92AF92BF92CE
:100EC000CF92DF92EF92FF920F931F93DF93CF9316
:100ED000CDB7DEB7A1970FB6F894DEBF0FBECDBF7A
:100EE0002C01742ECB01223008F42AE019A231E241
:100EF000C32ED12CCC0EDD1E822E9924AA24BB2415
:100F0000672D752FA50194010E94680C79018A0153
:100F1000C801B701A50194010E94490C472D461B49
:100F20000894C108D1084A3014F4405D01C0495CFE
:100F3000F6014083E114F1040105110521F07E2C36
:100F40005F2DC801DDCFC201B6010E943D07A19609
:100F50000FB6F894DEBF0FBECDBFCF91DF911F91CA
:100F60000F91FF90EF90DF90CF90BF90AF909F9048
:100F70008F907F905F904F900895DC01211531058F
:100F800041F4ED91FC910190F081E02D642F0995E1
:100F900008950E9459070895EF92FF920F931F93AF
:100FA0009A01E62EFF2400E010E0B801A7010E949C
:100FB000BD071F910F91FF90EF900895CF92DF92A0
:100FC000EF92FF920F931F936C01E62E9A01FF247C
:100FD00000E010E0B801A7010E94BD078C01C60126
:100FE0000E940907080F191FC8011F910F91FF9058
:100FF000EF90DF90CF900895CF92DF92EF92FF9223
:101000000F931F93CF93DF93EC016A017B012115AE
:10101000310541F4E881F9810190F081E02D642FE0
:1010200009951FC02A303105D1F477FF17C0E88138
:10103000F9810190F081E02D6DE209958C01442742
:101040005527BA014C195D096E097F09CE012AE0C6
:101050000E9459079801280F391F04C02AE00E94F6
:1010600059079C01C901DF91CF911F910F91FF900A
:10107000EF90DF90CF900895EF92FF920F931F9320
:101080007B019A010027F7FC0095102FB801A701FA
:101090000E94FC071F910F91FF90EF900895CF924F
:1010A000DF92EF92FF920F931F936C017B019A01E5
:1010B0000027F7FC0095102FB801A7010E94FC073C
:1010C0008C01C6010E940907080F191FC8011F9152
:1010D0000F91FF90EF90DF90CF9008950E943D0711
:1010E0000895AF92BF92CF92DF92EF92FF920F934B
:1010F0001F93CF93DF935C016B01EE24FF24C0E0CC
:10110000D0E010C0D501ED91FC9100811181C601A4
:10111000BE010E94A408682FC501F8010995E80ED8
:10112000F91E2196F60184819581C817D90750F3DD
:10113000C701DF91CF911F910F91FF90EF90DF904A
:10114000CF90BF90AF900895FC018481958168177E
:10115000790748F40190F081E02D309721F0E60FF7
:10116000F71F8081089580E008950F931F93CF9318
:10117000DF93EC018B016F5F7F4F888199810E9423
:10118000680B009711F480E005C0998388831B8366
:101190000A8381E0DF91CF911F910F910895CF9342
:1011A000DF93EC0188819981892B29F08A819B81C9
:1011B0008617970760F4CE010E94B508882341F096
:1011C0008C819D81892B19F4E881F981108281E05D
:1011D000DF91CF910895CF93DF93EC0188819981BE
:1011E000009711F00E94D00A198218821D821C8279
:1011F0001B821A82DF91CF910895EF92FF920F9395
:101200001F93CF93DF93EC017B018A01BA010E9407
:10121000CF08882321F4CE010E94EB0807C01D836C
:101220000C8388819981B7010E940401CE01DF916E
:10123000CF911F910F91FF90EF900895CF93DF937F
:10124000EC01198218821B821A821D821C821E8266
:101250006115710551F0DB010D900020E9F7119740
:10126000A61BB70BAD010E94FD08DF91CF91089539
:10127000FC01808191810E94D00A0895CF93DF9371
:101280000E94F8090E94A704CBEED4E00E948403D8
:101290002097E1F30E94EB04F9CF1F920F920FB653
:1012A0000F9211242F933F938F939F93AF93BF93EC
:1012B00080913B0790913C07A0913D07B0913E077C
:1012C00030913F070196A11DB11D232F2D5F2D37B2
:1012D00020F02D570196A11DB11D20933F0780934B
:1012E0003B0790933C07A0933D07B0933E07809146
:1012F000370790913807A0913907B0913A070196C6
:10130000A11DB11D8093370790933807A09339072B
:10131000B0933A07BF91AF919F918F913F912F91D9
:101320000F900FBE0F901F9018959B01AC017FB7D7
:10133000F8948091370790913807A0913907B091C0
:101340003A0766B5A89B05C06F3F19F00196A11D2D
:10135000B11D7FBFBA2FA92F982F8827860F911D07
:10136000A11DB11D62E0880F991FAA1FBB1F6A95BE
:10137000D1F7BC012DC0FFB7F89480913707909149
:101380003807A0913907B0913A07E6B5A89B05C088
:10139000EF3F19F00196A11DB11DFFBFBA2FA92F74
:1013A000982F88278E0F911DA11DB11DE2E0880F97
:1013B000991FAA1FBB1FEA95D1F7861B970B885E62
:1013C0009340C8F2215030404040504068517C4F1B
:1013D000211531054105510571F60895019739F040
:1013E000880F991F880F991F02970197F1F70895A9
:1013F000789484B5826084BD84B5816084BD85B5F0
:10140000826085BD85B5816085BDEEE6F0E08081B6
:1014100081608083E1E8F0E01082808182608083D7
:10142000808181608083E0E8F0E08081816080835A
:10143000E1EBF0E0808184608083E0EBF0E080818C
:1014400081608083EAE7F0E080818460808380812E
:1014500082608083808181608083808180688083D6
:101460001092C10008950F931F93CF93DF93BC0197
:101470008230910510F462E070E0E0914207F09153
:10148000430740E050E0A0E0B0E024C080819181BB
:1014900086179707D0F08617970771F4828193819A
:1014A000109729F013969C938E9312972CC09093CB
:1014B00043078093420727C04115510519F084174F
:1014C000950718F48D01AC01EF01DF018281938152
:1014D0009C01F9013097D1F641155105F9F0CA0187
:1014E000861B970B8430910580F48A819B810115BE
:1014F000110521F0F8019383828304C09093430780
:1015000080934207FE01329645C0FE01E80FF91FA5
:10151000619371930297998388833CC080914007BF
:1015200090914107892B41F480911D0290911E02F8
:10153000909341078093400740911F0250912002F1
:101540004115510541F44DB75EB780911B02909152
:101550001C02481B590B209140073091410724176A
:101560003507B0F4CA01821B930B8617970780F0EA
:10157000AB014E5F5F4F8417950750F0420F531F2A
:101580005093410740934007F9016193719302C062
:10159000E0E0F0E0CF01DF91CF911F910F9108952E
:1015A000CF93DF939C01009709F48FC0EC01229741
:1015B0001B821A8260914207709143076115710581
:1015C00081F488819981820F931F20914007309187
:1015D00041072817390739F5D0934107C0934007D1
:1015E00074C0DB0140E050E0AC17BD0708F1BB83DD
:1015F000AA83FE0121913191E20FF31FAE17BF07BD
:1016000079F48D919C911197280F391F2E5F3F4FD0
:101610003983288312968D919C9113979B838A839B
:101620004115510571F4D0934307C09342074DC053
:1016300012968D919C911397AD01009711F0DC01EA
:10164000D3CFDA011396DC93CE931297FA0121914E
:101650003191E20FF31FCE17DF0769F4888199817A
:10166000280F391F2E5F3F4FFA01318320838A8173
:101670009B8193838283E0E0F0E0DB0112968D9101
:101680009C911397009719F0BC01FD01F6CFAB01B7
:101690004E5F5F4FDB018D919C91840F951F2091D0
:1016A0004007309141072817390779F4309729F41A
:1016B000109243071092420702C0138212824250D6
:1016C00050405093410740934007DF91CF910895D8
:1016D0006F927F928F929F92AF92BF92CF92DF9242
:1016E000EF92FF920F931F93CF93DF938C0100979C
:1016F00029F4CB010E94330A8C01BBC08EEFE82E87
:101700008FEFF82EE00EF11E4801860E971E8E1404
:101710009F0408F4ACC0D7014D915C911197461716
:101720005707B8F04530510508F4A3C0CA01049723
:101730008617970708F49DC042505040461B570B30
:10174000F401419351936D937C93CF010E94D00A91
:1017500090C05B01A41AB50A3801640E751EA091F1
:101760004207B0914307E0E0F0E0CC24DD2447C01D
:10177000A615B705A9F5CD91DC911197CE0102967A
:101780008A159B0568F1CE018A199B09029612966B
:101790002C91129713963C91059758F0F4012283EF
:1017A0003383CA19DB09D183C083D7016D937C933E
:1017B00009C04E5F5F4F4C0F5D1FF701518340839F
:1017C000C901FC01C114D10431F0D6011396FC9378
:1017D000EE9312974EC0F0934307E093420749C03F
:1017E0008D919C911197E817F90708F4FC016D01A0
:1017F00012968C91129713969C919C01D901109787
:1018000009F0B6CF80914007909141078615970562
:10181000E9F4E617F707D0F420911F023091200277
:101820002115310541F42DB73EB780911B029091EF
:101830001C02281B390B82169306C8F490924107AC
:1018400080924007F7017183608313C0CB010E942F
:10185000330AEC01009759F0D7014D915C91B80122
:101860000E94FB00C8010E94D00A8E0102C000E065
:1018700010E0C801DF91CF911F910F91FF90EF9081
:10188000DF90CF90BF90AF909F908F907F906F90A0
:101890000895629FD001739FF001829FE00DF11DBA
:1018A000649FE00DF11D929FF00D839FF00D749FDA
:1018B000F00D659FF00D9927729FB00DE11DF91F86
:1018C000639FB00DE11DF91FBD01CF0111240895E3
:1018D000A1E21A2EAA1BBB1BFD010DC0AA1FBB1F34
:1018E000EE1FFF1FA217B307E407F50720F0A21BA6
:1018F000B30BE40BF50B661F771F881F991F1A9413
:1019000069F760957095809590959B01AC01BD013C
:10191000CF010895EE0FFF1F0590F491E02D09947B
:04192000F894FFCF69
:101924004A616E7561727900466562727561727999
:10193400004D6172636800417072696C004D617999
:10194400004A756E65004A756C7900417567757358
:10195400740053657074656D626572004F63746FD3
:10196400626572004E6F76656D62657200446563F0
:10197400656D626572002E2E000A00550053757065
:10198400696E6520706F736974696F6E004C65666B
:1019940074206C61746572616C206465637562693E
:1019A400747573005269677468206C617465726140
:1019B4006C206465637562697475730050726F6E30
:1019C4006520706F736974696F6E005374616E641F
:1019D400206F722073697420706F736974696F6EFD
:1019E400006E6F6E2D646566696E656420706F733A
:1019F4006974696F6E004D4D413834353251206938
:101A040073206F6E6C696E652E2E2E00436F756C9D
:101A140064206E6F7420636F6E6E65637420746FE0
:101A2400204D4D4138343532513A203078000A4344
:101A34006865636B53756D20320A008000440700AB
:101A440000000000002706BC06BD05EF05CF051702
:021A540006008A
:00000001FF
